:020000040800F2
:100000005007002089010008DB1400082F130008A6
:10001000D91400088F0200086D19000800000000C4
:10002000000000000000000000000000DF140008D5
:100030009102000800000000DD140008E11400082F
:10004000A3010008A3010008A3010008A301000800
:10005000A3010008A3010008A3010008A3010008F0
:10006000A3010008A3010008A3010008A3010008E0
:10007000A3010008A3010008A3010008A3010008D0
:10008000A3010008A3010008A3010008A3010008C0
:10009000A3010008A3010008A3010008A3010008B0
:1000A000A3010008A3010008A3010008A3010008A0
:1000B000A3010008A3010008A3010008A301000890
:1000C000A3010008A3010008A3010008A301000880
:1000D000A301000861190008A3010008A30100089A
:1000E000A3010008A3010008A301000800F002F822
:1000F00000F03AF80AA090E8000C82448344AAF188
:100100000107DA4501D100F02FF8AFF2090EBAE885
:100110000F0013F0010F18BFFB1A43F0010318473B
:10012000FC1800001C190000103A24BF78C878C1E0
:10013000FAD8520724BF30C830C144BF04680C60ED
:10014000704700000023002400250026103A28BF35
:1001500078C1FBD8520728BF30C148BF0B60704739
:100160001FB51FBD10B510BD00F058F81146FFF7C0
:10017000F7FF01F00DFC00F076F803B4FFF7F2FF93
:1001800003BC00F07DF8000009488047094800479B
:10019000FEE7FEE7FEE7FEE7FEE7FEE7FEE7FEE737
:1001A000FEE7FEE704480549054A064B7047000094
:1001B00043150008ED000008500100205007002002
:1001C00050030020500300204FF0000200B51346FA
:1001D00094469646203922BFA0E80C50A0E80C5067
:1001E000B1F12001BFF4F7AF090728BFA0E80C5018
:1001F00048BF0CC05DF804EB890028BF40F8042B11
:1002000008BF704748BF20F8022B11F0804F18BF7D
:1002100000F8012B7047704770477047754600F033
:100220002BF8AE4605006946534620F00700854688
:1002300018B020B5FFF7B6FFBDE820404FF000062C
:100240004FF000074FF000084FF0000B21F00701BE
:10025000AC46ACE8C009ACE8C009ACE8C009ACE801
:10026000C0098D46704710B50446AFF300802046A4
:10027000BDE81040FFF781BF00487047F000002044
:1002800001491820ABBEFEE7260002007047FEE7DA
:10029000704710B590F821100022022905D00421E2
:1002A000816380F82020012010BD01680B6823F0D5
:1002B0000E030B6001680B6823F001030B6090F8DC
:1002C0004030C46B012101FA03F3636080F8211010
:1002D00080F82020104610BD10B590F821100024A1
:1002E000022903D00421816301243DE001680A68EA
:1002F00022F00E020A6001680A6822F001020A6018
:100300001A4A0168914201D1012121E0174A1432B1
:10031000914201D110211BE0144A2832914201D1AF
:10032000891515E0114A3C32914201D189140FE040
:100330000E4A5032914202D14FF4803108E00B4A0C
:100340006432914202D14FF4801101E04FF080718C
:10035000064A083A5160012180F82110002180F8F6
:100360002010416B01B18847204610BD08000240B3
:100370002DE9F84FDFF8B891002409F1040A0AF1D9
:10038000040B23460F270BF1040EC9E00125A540FD
:100390002A40AA427DD1674ED1F804C0ACEB0608D2
:1003A000B44532D014DCBCF1030F3AD009DCBCF107
:1003B000000F2AD0BCF1010F1CD0BCF1020F31D1CB
:1003C0001DE0BCF1110F17D0BCF1120F2AD119E0BA
:1003D000B8F5881F19D006DCB8F5803F15D0B8F500
:1003E000801F1FD111E0B8F5001F0ED0B8F5041F13
:1003F00018D10AE0CB6815E0CB681B1D12E0CB6872
:1004000008330FE0CB680C330CE08B682BB1012B69
:100410004FF0080303D0456104E0042302E00561C6
:1004200000E00023FF2A01D8064601E000F104069F
:100430004FEA840501D9A5F12005D6F8008007FA16
:1004400005FC28EA0C0803FA05F548EA0508C6F891
:1004500000804D68ED0062D5374DAE6946F001066B
:10046000AE61AD6924F0030605F001050095334D3A
:1004700006EB050CDCF80850A607360F07FA06F85D
:1004800025EA0805DFF8B880404503D14FF00008A1
:1004900017E044E0DFF8AC80404502D14FF001089E
:1004A0000FE0DFF8A480404502D14FF0020808E0D9
:1004B000DFF89880404502D14FF0030801E04FF08B
:1004C000040808FA06F848EA0508CCF808804D68E0
:1004D000D9F80060ED034D4601D5164300E0964380
:1004E0002E604D68DAF80060AD03554601D516431D
:1004F00000E096432E604D68DBF80060ED025D463B
:1005000001D5164300E096432E604D68DEF800608A
:10051000AD02754601D5164300E096432E60641C7B
:100520000D682A46E5407FF431AFBDE8F88F000042
:1005300000040140000011100010024000000140C2
:1005400000080140000C014000100140001401406F
:100550000AB1016170470904FBE7000001488068A7
:10056000704700000C0000200248816802781144A6
:10057000816070470C000020074810B5016841F009
:1005800010010160032000F075F80F2000F006F85C
:1005900000F024F8002010BD0020024070B50D4D81
:1005A00004464FF47A712878B1FBF0F00A490968E3
:1005B000B1FBF0F000F0ECFA48B9102C07D20022A1
:1005C0002146501E00F036F800206C6070BD0120FE
:1005D00070BD00000C000020180000200C4808B579
:1005E000816941F001018161816901F0010100919E
:1005F000C16941F08051C161C06900F08050009034
:100600000448416821F0E06141F00071416008BD9B
:100610000010024000000140002809DB00F01F022A
:10062000012191404009800000F1E020C0F8001154
:1006300070470000F0B40E4B1B680C46C3F3022356
:10064000C3F10705042D00D90425191D072901D27E
:10065000002300E0DB1E012606FA05F1491E2140B9
:1006600099409E40761E16403143F0BC01F07FB9A0
:100670000CED00E0064900F0070208684FF6FF03A2
:10068000184040EA0220034A104308607047000007
:100690000CED00E00000FA052DE9F0470F460500DB
:1006A00061D0434E306800F00700B84209D230688C
:1006B00020F0070038433060306800F00700B8428F
:1006C00051D128683B4C810712D5400703D560689B
:1006D00040F4E06060602878000703D5606840F46B
:1006E000605060606068A96820F0F00008436060B6
:1006F0002878C00728D06868012810D0216802280F
:1007000010D0890700292EDA616821F00301014326
:100710006160FFF723FF804641F288390DE02168D0
:100720008903EFE78901EDE7FFF718FFA0EB080168
:10073000494502D90320BDE8F0876068696800F088
:100740000C00B0EB810FEFD1306800F00700B84229
:100750000BD9306820F0070038433060306800F073
:100760000700B84201D00120E5E72878400705D509
:100770006068E96820F4E06008436060287800075A
:1007800006D56068296920F4605040EAC1006060C5
:1007900000F038F86168084AC1F30311515CC840A1
:1007A0000649086006480068FFF7F8FE0020C2E727
:1007B0000020024000100240041A00081800002027
:1007C000100000200448054900684968044AC1F344
:1007D0000221515CC8407047180000200010024000
:1007E000141A00080448054900684968044AC1F31E
:1007F000C221515CC8407047180000200010024020
:10080000141A000812A185B00FC98DE80F0014A0BA
:10081000144A006804905168134801F00C03042B3B
:1008200010D0082B0ED1C1F38343C9031DF8030078
:100830000AD5516804AAC1F34041515C0A4A5043A9
:10084000B0FBF1F005B0704708494843FAE70000F3
:1008500002030405060708090A0B0C0D0E0F101001
:10086000010200000010024000127A0000093D0061
:100870002DE9F84F040070D02078C04DC00749D052
:100880006868C0F38100012807D06868C0F3810060
:10089000022809D16868C00306D52868800339D5C5
:1008A00060680028E7D035E06068B0F5803F0BD085
:1008B00010B1B0F5A02F11D0286820F48030286046
:1008C000286820F4802002E0286840F48030286006
:1008D000606890B1FFF742FE06460AE0286840F4DF
:1008E00080202860F0E700BFFFF738FE801B6428F7
:1008F00073D828688003F7D50CE0FFF72FFE064673
:1009000005E000BFFFF72AFE801B6428F0D82868A6
:100910008003F7D420789A4E80074FF001094FF0FA
:10092000000839D5686810F00C0F07D06868C0F36C
:100930008100022809D16868C00306D428688007AE
:1009400014D52069012808D110E02069B0B1C6F89B
:100950000090FFF703FE074605E00AE1FFF7FEFD02
:10096000C01B0228C4D828688007F7D528686169A9
:1009700020F0F80040EAC10028600DE0C6F80080D1
:10098000FFF7ECFD074604E0FFF7E8FDC01B022877
:1009900023D828688007F7D4207800072CD5794819
:1009A000A169D9B1C0F80090FFF7D8FD074604E06F
:1009B000FFF7D4FDC01B02280FD8686A8007F7D55F
:1009C00071484FF4FA510068B0FBF1F0009000BF9D
:1009D0000098411E0091FAD20EE080E0C0F800803D
:1009E000FFF7BCFD074604E0FFF7B8FDC01B022877
:1009F00075D8686A8007F7D42078400760D5E86921
:100A00000027C00008D4E86940F08050E861E86938
:100A1000012700F0805000905C480168C90513D49C
:100A20000168834641F480710160FFF797FD8246BB
:100A300006E000BFFFF792FDA0EB0A0064284ED845
:100A4000DBF80000C005F5D5E06801280AD008B140
:100A5000052813D0286A20F001002862286A20F0B7
:100A6000040002E0286A40F001002862E06841F2D8
:100A7000883B98B1FFF772FD82460BE0286A40F090
:100A800004002862EEE700BFFFF768FDA0EB0A0153
:100A900059455AD8286A8007F6D50CE0FFF75EFD65
:100AA000824605E0FFF75AFDA0EB0A0159454CD8F4
:100AB000286A8007F6D41FB1E86920F08050E86109
:100AC000E06988B36968C1F38101022944D0022832
:100AD000C6F8608004D0FFF741FD044638E034E0FA
:100AE000FFF73CFD074604E0FFF738FDC01B022876
:100AF0002BD828688001F7D4206AB0F5803F05D153
:100B00006868A16820F4003008436860D4E90801EF
:100B10000843696821F4741108436860C6F860905E
:100B2000FFF71CFD044606E025E000BFFFF716FDB9
:100B3000001B022809D828688001F7D51BE000BFF8
:100B4000FFF70CFD001B022802D90320BDE8F88F37
:100B500028688001F4D40EE00128F7D06868226A82
:100B600000F48031914204D1616A00F4701088422F
:100B700001D00120EAE70020E8E700000010024071
:100B800000004242800442421800002000700040F1
:100B900010B5401EB0F1807F01D3012010BD4FF091
:100BA000E02460610F21601700F0E1FE0020A061E9
:100BB00007202061002010BD70B590F83C20012A6C
:100BC00026D0012480F83C40022280F83D200368B2
:100BD0005A689D6822F070060A6832435A600D4BCD
:100BE00002689A4208D0B2F1804F05D00A4B9A426F
:100BF00002D00A4B9A4204D1496825F08003194378
:100C0000916080F83D40002180F83C10084670BD9E
:100C1000022070BD002C014000040040000800408C
:100C200010B5040003D094F83D0010B107E0012096
:100C300010BD002084F83C00204600F01FF8022080
:100C400084F83D00211D206800F07CFC012084F820
:100C5000460084F83E0084F83F0084F8400084F8A1
:100C6000410084F8420084F8430084F8440084F88A
:100C7000450084F83D00002010BD000008B5016863
:100C80000B48B1F1804F0BD00A4A914207D1C1699C
:100C900041F00201C161C06900F00200009008BD8E
:100CA000C16941F00101C161C06900F00100F5E7CF
:100CB000001002400004004070B5044690F83C006B
:100CC000012817D0012584F83C50022084F83D000B
:100CD0002068826822F0770222F47F4282600868EE
:100CE000502830D00DDC20284DD005DC98B31028DA
:100CF0003BD148E0022070BD302844D0402834D198
:100D000039E0602828D0702806D0B0F5805F2CD05C
:100D1000B0F5005F29D10AE0CB68D1E90121206854
:100D200000F053FC2068816841F0770109E0CB684E
:100D3000D1E90121206800F048FC2068816841F475
:100D40008041816011E0CA684968206800F0F2FCC7
:100D50005021206807E016E0CA684968206800F062
:100D6000FAFC6021206800F03AFC84F83D50002035
:100D700084F83C0070BDCA684968206800F0DAFC5D
:100D800040212068EFE7226801461046EBE70000AB
:100D900000B585B000210091019102910391026894
:100DA00013490220B2F1804F14D0124B9A420FD156
:100DB0008A6942F008028A618969039001F008019A
:100DC00004910121CDE9001069460B48FFF7D0FAE4
:100DD00005B000BD8A6942F004028A618969009009
:100DE00001F004010190CDE9030169460348EDE7F4
:100DF0000010024000040040000C014000080140C7
:100E000070B5044690F83C000D4601280AD0012038
:100E100084F83C0042B1042A18D0082A2AD00C2AAF
:100E20004DD139E0022070BD206800F0E1FB206860
:100E3000816941F0080181612068816921F0040124
:100E40008161206881692A69114311E0206800F0FE
:100E5000F7FB2068816941F4006181612068816944
:100E600021F480618161206881692A6941EA022157
:100E7000816124E0206800F00FFC2068C16941F026
:100E80000801C1612068C16921F00401C1612068C5
:100E9000C1692A69114311E0206800F029FC20682B
:100EA000C16941F40061C1612068C16921F48061B8
:100EB000C1612068C1692A6941EA0221C16100203B
:100EC00084F83C0070BD10B5040003D094F83D00D8
:100ED00010B107E0012010BD002084F83C0020463E
:100EE00000F01EF8022084F83D00211D206800F06B
:100EF00029FB012084F8460084F83E0084F83F0076
:100F000084F8400084F8410084F8420084F84300EB
:100F100084F8440084F8450084F83D00002010BDAA
:100F20007047000010B50446022249B104290ED0D2
:100F3000082913D094F84100012816D0012010BDD3
:100F400094F83E000128F9D184F83E200FE094F88F
:100F50003F000128F2D184F83F2008E094F84000D7
:100F60000128EBD184F8402001E084F841200122DF
:100F7000206800F01DFB0F492068884203D1426CB5
:100F800042F4004242642068884208D0B0F1804FA9
:100F900005D00949884202D00849884204D18168B5
:100FA00001F00701062903D0016841F00101016049
:100FB000002010BD002C014000040040000800404B
:100FC00070477047F8B5026804461068D1685369E5
:100FD00010F00F0F4FF0000553D003F0010601F49D
:100FE000907737435FD0C20705D0CA0503D5226C7E
:100FF00042F001022264420705D5DA0703D0226CD1
:1010000042F002022264820705D5DA0703D0226C7F
:1010100042F004022264020707D501F020023243A5
:1010200003D0226C42F008022264226C002A34D0E1
:10103000800604D5880602D5204600F0BEFB206855
:101040004069216CC0F38010090700D430B32046FA
:1010500000F09BFB2068416949061BD5416921F0DE
:1010600040014161A06BA8B158494163A06BFFF7F3
:1010700033F9002811D0A06B416B01B0BDE8F040FE
:10108000084783060FD58B060DD52046BDE8F840EE
:1010900000F093BB2046FFF794FFF8BD2046FFF712
:1010A00090FF2564F8BD266B2023012E52D1C60681
:1010B00050D5CE064ED51068506800905069400655
:1010C0002AD5A16B086840680004000CEAD0A68D00
:1010D0008642E7D9E0858869202818D0D06820F4B6
:1010E0008070D0602068416921F001014161206871
:1010F000416921F04001416184F83E302563206858
:10110000C16821F01001C160A06BFFF7C2F8A08D8B
:10111000E18D401A81B219E0A08DE18D401A81B2B3
:10112000E08D0028BED00029BCD0D06820F490709B
:10113000D0602068426922F00102426184F83E30AA
:1011400025632068C26822F01002C2602046FFF7C3
:1011500037FFF8BD05062BD50D0629D594F83D00BF
:101160002128F6D1A068B0F5805F01D12069B0B127
:10117000206A411C2162216800784860E08C401E92
:101180000004000CE084E4D12068C16821F08001F3
:10119000C1602068C16841F04001C160F8BD206AAB
:1011A0000088C0F308005060206A801C2062E5E7D8
:1011B0004006F3D54806F1D5D168204621F040011C
:1011C000D16084F83D3000F0B1F8F8BD7B1700081D
:1011D00070B5040004D094F83D00002510B106E07D
:1011E000012070BD84F83C50204600F023F82420F4
:1011F00084F83D002068C16821F40051C160204698
:1012000000F036FB2068016921F4904101612068FB
:10121000416921F02A0141612068C16841F400510F
:10122000C1602564202084F83D0084F83E00002041
:1012300070BD000030B585B0002400940194029484
:1012400003940068184988422CD11848816941F4F8
:1012500080418161816901F480410491816941F09B
:10126000040181618069124D00F0040004904FF484
:1012700000700090022001900320039069462846E8
:10128000FFF776F82815CDE9000469462846029450
:10129000FFF76EF8002211462520FFF7CBF9252035
:1012A000FFF7BAF905B030BD003801400010024028
:1012B0000008014090F83E30202B0ED159B152B1B8
:1012C00090F83C30012B08D0012380F83C300023FB
:1012D000036300F029BB0120704702207047000023
:1012E00010480178401E7E2916D08A2916D07E2902
:1012F00005D08A2903D002784AB1521C02700078C6
:10130000012804D9074A521C104400F8021C01228B
:1013100004490548FFF7CEBF012100E0002101701C
:10132000F5E7000001000020AC0000207047FEE758
:1013300030B585B0002418480094019402940394B9
:10134000816941F020018161816901F020010491EE
:10135000816941F004018161816901F00401049116
:10136000816941F00801816180690C4D00F008003D
:101370000490002218212846FFF7EAF81820009070
:101380000120CDE901040220039069462846FEF7BA
:10139000EFFF05B030BD0000001002400008014022
:1013A00010B58EB000240794089409940A940B9405
:1013B0001C2168460C94FEF707FF1F484FF0804140
:1013C00001601121C0E9011440F6FB01C0E90314DA
:1013D0008461FFF725FC08B172B6FEE74FF4805038
:1013E000079007A91448FFF767FC08B172B6FEE73B
:1013F0001148FFF768FD08B172B6FEE70B940BA920
:101400000D480C94FFF7D8FB08B172B6FEE76020D8
:10141000009040F27E40CDE901040422694606486E
:101420000494FFF7EDFC08B172B6FEE70248FFF73F
:10143000AFFC0EB010BD00001C00002010B58EB037
:1014400000240794089409940A940B941C2168467C
:101450000C94FEF7B9FE1F481D4901601321C0E935
:1014600001144FF4FA61C0E903148461FFF7D8FB5B
:1014700008B172B6FEE74FF48050079007A91548EF
:10148000FFF71AFC08B172B6FEE71248FFF71BFD22
:1014900008B172B6FEE70B940BA90E480C94FFF747
:1014A0008BFB08B172B6FEE7602000903220CDE9D8
:1014B00001040822694607480494FFF7A1FC08B11B
:1014C00072B6FEE70348FFF763FC0EB010BD0000E4
:1014D0000004004064000020FEE7FEE7704770470C
:1014E000FFF742B830B58FB028216846FEF76CFE92
:1014F00014210AA8FEF768FE01210804CDE90010B6
:101500000024029402250491CDE907504FF4E01025
:1015100009906846FFF7ACF908B172B6FEE70F20F4
:10152000CDE90A054FF4C060CDE90C4002210AA8BC
:101530000E94FFF7B1F8002801D072B6FEE70FB0A5
:1015400030BD7047F0B50268164B174C174D4FF081
:101550008047984205D0B84203D0A04201D0A842AB
:1015600003D122F070064A683243984205D0B8424F
:1015700003D0A04201D0A84203D122F44074CA682B
:1015800022434C6922F08002224302608A68C262D0
:101590000A688262984201D10969016301214161AF
:1015A000F0BD0000002C0140000400400008004095
:1015B00010B501F01F030121046A99408C430462B5
:1015C000016A9A401143016210BD10B5846842EA75
:1015D000032224F47F440A432243826010BD8268C0
:1015E00022F070020A4342F0070181607047000058
:1015F00030B5026A22F001020262026A436884691D
:1016000024F073050C682C4322F002058A682A43F3
:101610000A4DA8420BD122F00805CA6823F4407392
:101620002A434D6922F004021D438B692B4343601A
:10163000846149684163026230BD0000002C0140B2
:1016400030B5026A22F010020262026A43688469BD
:101650000D6824F4E64444EA05248D6822F0200253
:1016600042EA05120B4DA8420ED1CD6822F080024D
:1016700042EA05124D6923F4406343EA85038D690C
:1016800022F0400243EA8503436084614968816334
:10169000026230BD002C014030B5026A22F4807233
:1016A0000262036A4268C46923F4007324F073057C
:1016B0000C682C438D6843EA05230C4DA8420ED1DB
:1016C000CD6823F4006343EA05234D6922F44052B8
:1016D00042EA05128D6923F4806342EA05124260F2
:1016E000C4614968C163036230BD0000002C014041
:1016F00030B5026A22F480520262046A4268C36909
:101700000D6823F4E64343EA05238D6824F400546E
:1017100044EA0534064DA84204D14D6922F48042C2
:1017200042EA85124260C36149680164046230BDC7
:10173000002C014010B5036A046A24F0010404621D
:10174000846924F0F00444EA021423F00A020A43F4
:101750008461026210BD10B5036A23F010030362B6
:101760008369046A23F4704343EA023224F0A0033D
:1017700043EA01118261016210BD10B5406A002187
:10178000C185C184FFF71DFC10BD0168CA6822F441
:101790009072CA6001684A6922F001024A61016BD5
:1017A000012904D10168CA6822F01002CA60202110
:1017B00080F83E1000210163704708B590F83E1094
:1017C000222901D0022008BD82684FF480539A423A
:1017D00001D1016921B1816A9A421BD04AB10AE064
:1017E0000268816A5268C2F308020A80816A891C11
:1017F00008E0026972B10268526802F07F020A7062
:10180000816A491C8162C18D491E0904090CC18588
:1018100003D019E002685268F1E70168CA6822F053
:101820002002CA600168CA6822F48072CA60016836
:101830004A6922F001024A61202180F83E10016BC2
:10184000012903D0FFF74CFD002008BD00210163F2
:101850000168CA6822F01002CA6001680A68D206EC
:1018600002D50A6849680091818DFFF7A9FBEBE773
:1018700070B5044600680169E26821F440511143E3
:1018800001612169A0680843616908432168CA6849
:1018900041F20C639A430243CA6020684169A2691D
:1018A00021F44071114341611E492068884202D1F0
:1018B000FEF798FF01E0FEF785FF00EBC00101EBAA
:1018C0000012606864218000B2FBF0F3B3FBF1F317
:1018D0006FF018067343B2FBF0F5B2FBF0F605EBC0
:1018E0008305322303EB0515B5FBF1F5B6FBF1F6E5
:1018F00005F0F00505EB0615B2FBF0F6B2FBF0F0D3
:10190000B0FBF1F06FF01802504306EB800003EBE0
:101910000010B0FBF1F0216800F00F00284488604F
:1019200070BD00000038014081628285C2850021BF
:101930000164222280F83E2080F83C100168CA68C9
:1019400042F48072CA6001684A6942F001024A6149
:101950000068C16841F02001C160002070470000AC
:101960000148FFF72FBB0000AC000020FEE709078D
:10197000090E002804DB00F1E02080F80014704715
:1019800000F00F0000F1E02080F8141D7047000007
:10199000FEF7F2FDFFF7A6FDFFF7CAFCFFF700FD1B
:1019A000FFF74CFD154814490C2201604FF4E1315A
:1019B000416000218160C160C0E904128161C161A0
:1019C000FFF706FC08B172B6FEE70C48082148385C
:1019D000FFF7A8FA094804219038FFF7A3FA01227B
:1019E00007490648FFF766FC04494FF47A709039BE
:1019F0000A689063FCE7000000380140AC0000205A
:101A000001000020000000000000000001020304AB
:101A10000607080900000000010203043C1A000840
:101A2000000000201C00000028010008581A0008CF
:101A30001C000020340700004401000800000000E2
:101A40000000000000000000010000001000000085
:081A5000000000000024F40076
:04000005080000ED02
:00000001FF
